{
  "_format": "hh-sol-artifact-1",
  "contractName": "Sensor",
  "sourceName": "contracts/Sensor.sol",
  "abi": [
    {
      "inputs": [
        {
          "internalType": "uint256",
          "name": "_g",
          "type": "uint256"
        }
      ],
      "name": "addUnD",
      "outputs": [
        {
          "internalType": "string",
          "name": "result",
          "type": "string"
        }
      ],
      "stateMutability": "nonpayable",
      "type": "function"
    },
    {
      "inputs": [],
      "name": "g",
      "outputs": [
        {
          "internalType": "uint256",
          "name": "",
          "type": "uint256"
        }
      ],
      "stateMutability": "view",
      "type": "function"
    },
    {
      "inputs": [
        {
          "internalType": "uint256",
          "name": "_g",
          "type": "uint256"
        }
      ],
      "name": "inspectUnD",
      "outputs": [
        {
          "internalType": "uint32",
          "name": "result",
          "type": "uint32"
        }
      ],
      "stateMutability": "view",
      "type": "function"
    }
  ],
  "bytecode": "0x60806040526040518060400160405280600f81526020017f6475706c696361746520656e74727900000000000000000000000000000000008152506001908051906020019061004f929190610062565b5034801561005c57600080fd5b50610166565b82805461006e90610134565b90600052602060002090601f01602090048101928261009057600085556100d7565b82601f106100a957805160ff19168380011785556100d7565b828001600101855582156100d7579182015b828111156100d65782518255916020019190600101906100bb565b5b5090506100e491906100e8565b5090565b5b808211156101015760008160009055506001016100e9565b5090565b7f4e487b7100000000000000000000000000000000000000000000000000000000600052602260045260246000fd5b6000600282049050600182168061014c57607f821691505b602082108114156101605761015f610105565b5b50919050565b6103b1806101756000396000f3fe608060405234801561001057600080fd5b50600436106100415760003560e01c806323fe58c414610046578063c8b2fcec14610076578063e2179b8e146100a6575b600080fd5b610060600480360381019061005b91906101ce565b6100c4565b60405161006d9190610294565b60405180910390f35b610090600480360381019061008b91906101ce565b61016f565b60405161009d91906102d5565b60405180910390f35b6100ae61018d565b6040516100bb91906102ff565b60405180910390f35b606060005482141561016257600180546100dd90610349565b80601f016020809104026020016040519081016040528092919081815260200182805461010990610349565b80156101565780601f1061012b57610100808354040283529160200191610156565b820191906000526020600020905b81548152906001019060200180831161013957829003601f168201915b5050505050905061016a565b816000819055505b919050565b600080548214156101835760019050610188565b600290505b919050565b60005481565b600080fd5b6000819050919050565b6101ab81610198565b81146101b657600080fd5b50565b6000813590506101c8816101a2565b92915050565b6000602082840312156101e4576101e3610193565b5b60006101f2848285016101b9565b91505092915050565b600081519050919050565b600082825260208201905092915050565b60005b8381101561023557808201518184015260208101905061021a565b83811115610244576000848401525b50505050565b6000601f19601f8301169050919050565b6000610266826101fb565b6102708185610206565b9350610280818560208601610217565b6102898161024a565b840191505092915050565b600060208201905081810360008301526102ae818461025b565b905092915050565b600063ffffffff82169050919050565b6102cf816102b6565b82525050565b60006020820190506102ea60008301846102c6565b92915050565b6102f981610198565b82525050565b600060208201905061031460008301846102f0565b92915050565b7f4e487b7100000000000000000000000000000000000000000000000000000000600052602260045260246000fd5b6000600282049050600182168061036157607f821691505b602082108114156103755761037461031a565b5b5091905056fea26469706673582212201280a6b027cdcbe2d1a49d079a14a539b49f7908fc29ed698f2a4aa1215f125564736f6c63430008080033",
  "linkReferences": {},
  "deployedLinkReferences": {}
}