{
  "_format": "hh-sol-artifact-1",
  "contractName": "IoT",
  "sourceName": "contracts/IoT.sol",
  "abi": [
    {
      "inputs": [
        {
          "internalType": "uint256",
          "name": "_alpha",
          "type": "uint256"
        },
        {
          "internalType": "uint256",
          "name": "_t",
          "type": "uint256"
        }
      ],
      "name": "addUnD",
      "outputs": [
        {
          "internalType": "string",
          "name": "result",
          "type": "string"
        }
      ],
      "stateMutability": "nonpayable",
      "type": "function"
    },
    {
      "inputs": [],
      "name": "alpha",
      "outputs": [
        {
          "internalType": "uint256",
          "name": "",
          "type": "uint256"
        }
      ],
      "stateMutability": "view",
      "type": "function"
    },
    {
      "inputs": [
        {
          "internalType": "uint256",
          "name": "_alpha",
          "type": "uint256"
        },
        {
          "internalType": "uint256",
          "name": "_t",
          "type": "uint256"
        }
      ],
      "name": "inspectUnD",
      "outputs": [
        {
          "internalType": "uint32",
          "name": "result",
          "type": "uint32"
        }
      ],
      "stateMutability": "view",
      "type": "function"
    },
    {
      "inputs": [],
      "name": "t",
      "outputs": [
        {
          "internalType": "uint256",
          "name": "",
          "type": "uint256"
        }
      ],
      "stateMutability": "view",
      "type": "function"
    }
  ],
  "bytecode": "0x60806040526040518060400160405280600f81526020017f6475706c696361746520656e74727900000000000000000000000000000000008152506002908051906020019061004f929190610062565b5034801561005c57600080fd5b50610166565b82805461006e90610134565b90600052602060002090601f01602090048101928261009057600085556100d7565b82601f106100a957805160ff19168380011785556100d7565b828001600101855582156100d7579182015b828111156100d65782518255916020019190600101906100bb565b5b5090506100e491906100e8565b5090565b5b808211156101015760008160009055506001016100e9565b5090565b7f4e487b7100000000000000000000000000000000000000000000000000000000600052602260045260246000fd5b6000600282049050600182168061014c57607f821691505b602082108114156101605761015f610105565b5b50919050565b610416806101756000396000f3fe608060405234801561001057600080fd5b506004361061004c5760003560e01c80632959bfce1461005157806392d0d15314610081578063cc75c3061461009f578063db1d0fd5146100cf575b600080fd5b61006b60048036038101906100669190610220565b6100ed565b60405161007891906102f9565b60405180910390f35b6100896101ad565b604051610096919061032a565b60405180910390f35b6100b960048036038101906100b49190610220565b6101b3565b6040516100c69190610364565b60405180910390f35b6100d76101df565b6040516100e4919061032a565b60405180910390f35b606060005483148015610101575060015482145b156101985760028054610113906103ae565b80601f016020809104026020016040519081016040528092919081815260200182805461013f906103ae565b801561018c5780601f106101615761010080835404028352916020019161018c565b820191906000526020600020905b81548152906001019060200180831161016f57829003601f168201915b505050505090506101a7565b82600081905550816001819055505b92915050565b60015481565b60008054831480156101c6575060015482145b156101d457600190506101d9565b600290505b92915050565b60005481565b600080fd5b6000819050919050565b6101fd816101ea565b811461020857600080fd5b50565b60008135905061021a816101f4565b92915050565b60008060408385031215610237576102366101e5565b5b60006102458582860161020b565b92505060206102568582860161020b565b9150509250929050565b600081519050919050565b600082825260208201905092915050565b60005b8381101561029a57808201518184015260208101905061027f565b838111156102a9576000848401525b50505050565b6000601f19601f8301169050919050565b60006102cb82610260565b6102d5818561026b565b93506102e581856020860161027c565b6102ee816102af565b840191505092915050565b6000602082019050818103600083015261031381846102c0565b905092915050565b610324816101ea565b82525050565b600060208201905061033f600083018461031b565b92915050565b600063ffffffff82169050919050565b61035e81610345565b82525050565b60006020820190506103796000830184610355565b92915050565b7f4e487b7100000000000000000000000000000000000000000000000000000000600052602260045260246000fd5b600060028204905060018216806103c657607f821691505b602082108114156103da576103d961037f565b5b5091905056fea2646970667358221220143391183a5b768f25d0a5dd6d8b2dff1423f37ffbc3565eae94235d4d5ec87e64736f6c63430008080033",
  "linkReferences": {},
  "deployedLinkReferences": {}
}